:020000040800F2
:100000000000022001050008110400081304000884
:100010001504000817040008190400080000000077
:100020000000000000000000000000001B040008A9
:100030001D040008000000001F040008210400083F
:100040005105000851050008510500085105000838
:100050005105000851050008510500085105000828
:100060005105000851050008510500085105000818
:100070005105000851050008510500085105000808
:1000800051050008510500085105000851050008F8
:1000900051050008510500085105000851050008E8
:1000A00051050008510500085105000851050008D8
:1000B00051050008510500085105000851050008C8
:1000C00051050008510500085105000851050008B8
:1000D00051050008510500085105000851050008A8
:1000E0005105000851050008510500085105000898
:1000F0005105000851050008510500085105000888
:100100005105000851050008510500085105000877
:100110005105000851050008510500085105000867
:100120005105000851050008510500085105000857
:100130005105000800000000000000005105000803
:100140005105000851050008510500085105000837
:100150005105000851050008510500085105000827
:100160005105000851050008510500085105000817
:100170005105000851050008510500080000000065
:100180000000000051050008000000000000000011
:1001900051050008000000000000000051050008A3
:1001A00000000000000000000000000051050008F1
:1001B00051050008510500085105000851050008C7
:0401C00051050008DD
:1001C40010B5054C237833B9044B13B10448AFF38D
:1001D40000800123237010BD6C000020000000008B
:1001E400880E000808B5034B1BB103490348AFF35D
:1001F400008008BD0000000070000020880E000888
:10020400034A1168034B1B780B441360704700BF0B
:10021400980000200000002008B5684A136843F0E5
:1002240008031360664B1A6822F0FF021A601A680A
:1002340042F055021A601A6822F47F021A600C33E5
:100244001A6822F47F021A601A6842F4AA021A6039
:100254003CE05C4800F00AFA46E05B4800F006FA2D
:1002640047E05A4800F002FA48E0594800F0FEF925
:1002740049E0584800F0FAF953E0574800F0F6F91D
:1002840054E0564800F0F2F955E0554800F0EEF914
:1002940056E0544800F0EAF960E0534800F0E6F90B
:1002A40061E0524800F0E2F962E0514800F0DEF902
:1002B40063E0504800F0DAF96DE04F4800F0D6F9F9
:1002C4006EE04E4B1B6813F4006F72D04C4B1A68EF
:1002D40042F00F021A601A6822F001021A60043B0D
:1002E4001B6813F4807FB4D0444B1B6813F4007F65
:1002F400B3D0424B1B6813F4806FB2D03F4B1B68E2
:1003040013F4006FB1D03E4B1A6842F00F021A602A
:100314001A6822F002021A60043B1B6813F4807FFF
:10032400A7D0364B1B6813F4007FA6D0334B1B6851
:1003340013F4806FA5D0314B1B6813F4006FA4D065
:100344002F4B1A6842F00F021A601A6822F0040256
:100354001A60043B1B6813F4807F9AD0274B1B68F8
:1003640013F4007F99D0254B1B6813F4806F98D049
:10037400224B1B6813F4006F97D0214B1A6842F08C
:100384000F021A601A6822F008021A60043B1B6804
:1003940013F4807F8DD0194B1B6813F4007F8CD02D
:1003A400164B1B6813F4806F8BD1164800F05EF96E
:1003B40087E7154800F05AF988E700BF3038024053
:1003C400000C0240A00E0008A40E0008A80E0008AD
:1003D400AC0E0008B00E0008B40E0008B80E0008F9
:1003E400BC0E0008C00E0008C40E0008C80E0008A9
:1003F400CC0E0008D00E0008D40E0008100C0240E9
:10040400140C0240D80E0008DC0E00087047FEE70A
:10041400FEE7FEE7FEE770477047704708B5FFF751
:10042400EFFE08BD70B50D461646002404E0AFF398
:100434000080287001340135B442F8DB304670BDC9
:1004440070B51646002405E04D1C0878AFF3008013
:1004540001342946B442F7DB304670BD08B5034683
:100464000B4A126842B10A4A106803446A4693422E
:1004740006D8074A136008BD054A06491160F2E729
:1004840000F066F80C2303604FF0FF30F3E700BF81
:1004940088000020A00000204FF0FF3070474FF488
:1004A40000534B60002070470120704700207047C4
:1004B4000F49D1F8883043F47003C1F888300D4BEC
:1004C4001A6842F001021A60002098601A6822F04B
:1004D400847222F480321A60074A5A601A6822F43D
:1004E40080221A60D8604FF000638B60704700BFB1
:1004F40000ED00E00038024010300024DFF834D072
:10050400002103E00C4B5B58435004310B480C4B67
:1005140042189A42F6D30B4A02E0002342F8043B05
:10052400094B9A42F9D3FFF7C3FF00F017F8FFF71E
:1005340073FE7047000002204C0F000800000020EA
:100544006C0000206C000020A0000020FEE70000EA
:10055400014B1868704700BF0800002070B50D4EAD
:100564000D4CA41BA4100025A54209D10B4E0C4C24
:1005740000F088FCA41BA4100025A54205D170BD81
:1005840056F8253098470135EEE756F82530984758
:100594000135F2E7440F0008440F0008440F000837
:1005A400480F000802440346934200D1704703F801
:1005B400011BF9E770B50E46054618B183690BB9FE
:1005C40000F00CFAAB69AC6813B9284600F006FADF
:1005D400234B9C4217D16C68A3891B071DD5236943
:1005E400DBB1013EA36816F8011F013BA360E9B922
:1005F400002B2EDA22460A21284600F03FF801306B
:1006040011D00A2011E0174B9C4201D1AC68E3E7FA
:10061400154B9C4208BFEC68DEE72146284600F0F3
:100624007FF80028DDD04FF0FF3070BD002B04DAD6
:10063400A2699A4206DC0A2904D023685A1C226063
:100644001970CFE72246284600F018F80130C9D1C6
:10065400E9E723680A205A1C22601870E5E700BF06
:10066400040F0008240F0008E40E0008024B0146A2
:100674001868FFF79FBF00BF08000020F8B50E46BA
:100684001446054618B183690BB900F0A7F9214B4C
:100694009C422AD16C68A369A360A3891A072ED54A
:1006A400236963B323692068C01A6369F6B283427D
:1006B400374604DC2146284600F026F928BBA36807
:1006C400013BA36023685A1C22601E7063690130D9
:1006D400834204D0A389DB0719D50A2E17D12146FA
:1006E400284600F011F990B10FE00B4B9C4201D168
:1006F400AC68D0E7094B9C4208BFEC68CBE72146C5
:10070400284600F00DF80028CCD04FF0FF373846CB
:10071400F8BD00BF040F0008240F0008E40E000811
:10072400324B70B51D6806460C4625B1AB6913B94A
:10073400284600F053F92E4B9C420FD16C68B4F953
:100744000C309AB215072CD4D00611D40922326089
:1007540043F04003A3814FF0FF303EE0254B9C4221
:1007640001D1AC68EBE7244B9C4208BFEC68E6E798
:10077400510712D5616B41B104F14403994202D08F
:10078400304600F019FA00236363A38923F024039D
:10079400A3810023636023692360A38943F00803D2
:1007A400A38123694BB9A38903F42073B3F5007FB4
:1007B40003D02146304600F0BFF9A28912F00103AC
:1007C4000CD00023A36063695B42A361236953B91E
:1007D400B4F90C3013F08000BAD170BD920758BF41
:1007E4006369A360F2E70020F7E700BF0800002078
:1007F400040F0008240F0008E40E00088A892DE97C
:10080400F041054610070C4658D44B68002B05DC14
:100814000B6C002B02DC0020BDE8F081E66A002EA0
:10082400F9D0002312F480522F68216A2B6032D051
:10083400606DA3895A0705D56368C01A636B0BB151
:10084400236CC01A00230246E66A216A2846B04790
:10085400431CA38906D129681D2948D8294ACA40BE
:10086400D60744D500226260D9042269226004D5E7
:10087400421C01D12B6803B96065616B2F600029AC
:10088400C9D004F14403994202D0284600F094F9F7
:1008940000206063C0E701232846B047411CC8D14B
:1008A4002B68002BC5D01D2B01D0162B01D12F6036
:1008B400B1E7A38943F04003A381ADE70F69002F9B
:1008C400A9D093070E6808BF4B690F6018BF0023B7
:1008D400A6EB07088B60B8F1000F9CDD43463A464F
:1008E400216AA66A2846B047002806DCA38943F09B
:1008F4004003A3814FF0FF308EE70744A8EB0008C4
:10090400E9E700BF0100402038B50B6905460C46F5
:10091400DBB118B183690BB900F060F80C4B9C4251
:1009240009D16C68B4F90C307BB121462846BDE886
:100934003840FFF763BF074B9C4201D1AC68F1E735
:10094400054B9C4208BFEC68ECE7002038BD00BFB3
:10095400040F0008240F0008E40E0008002310B55B
:100964000446C0E90033836081814366C281C0E9E3
:1009740004338361194608225C30FFF713FE054BEC
:100984006362054BA362054BE362054B2462236358
:1009940010BD00BF2D0D00084F0D0008870D000885
:1009A400AB0D0008014900F085B800BF0D0900082F
:1009B40070B54A1E682555430E4605F1740100F0D2
:1009C40049F9044640B10021C0E900160C30A0608A
:1009D40005F16802FFF7E6FD204670BD836910B596
:1009E400044633BBC0E912330365124B124A1B6839
:1009F4008262984204BF0123836100F01FF86060A3
:100A0400204600F01BF8A060204600F017F80022F2
:100A1400E06004216068FFF7A1FF01220921A068BA
:100A2400FFF79CFF02221221E068FFF797FF0123E2
:100A3400A36110BDE00E0008A9090008F8B51B4B1E
:100A44001E68B369074613B93046FFF7C7FF483637
:100A5400D6E90134013B03D5336833B13668F7E78F
:100A6400B4F90C506DB16834F4E704213846FFF74B
:100A74009FFF30600028F1D10C233B6004462046E0
:100A8400F8BD0B4B6566C4E90055A560C4E90335A0
:100A9400C4E905550822294604F15C00FFF782FDEC
:100AA400C4E90D55C4E91255E9E700BFE00E00089A
:100AB4000100FFFF2DE9F8438046894600F1480410
:100AC400002614B93046BDE8F883D4E90175013F26
:100AD40001D52468F5E7AB89012B07D9B5F90E30A8
:100AE400013303D029464046C84706436835EEE73C
:100AF40070B50E46B1F90E10002996B014461D4685
:100B040007DA00232B60B3891A0610D44FF48063EC
:100B14000EE06A4600F06EF90028F2DB019A02F456
:100B24007042A2F500535A425A412A60EEE740232C
:100B34000020236016B070BD8B8973B59D070646EF
:100B44000C4607D504F14703236023610123636145
:100B540002B070BD01AB6A46FFF7CAFF00990546B3
:100B6400304600F077F848B9B4F90C309A05EFD460
:100B740023F0030343F00203A381E3E70D4BB362C5
:100B8400A389206043F08003A381009B6361019BE0
:100B940020615BB1B4F90E10304600F03DF928B184
:100BA400A38923F0030343F00103A381A3891D4315
:100BB400A581CDE7A909000838B50546002945D027
:100BC40051F8043C0C1F002BB8BFE41800F046F9A0
:100BD4001F4A1368104633B9636014602846BDE8A1
:100BE400384000F03CB9A3420CD921686218934202
:100BF40004BF1A685B68636004BF52182260046013
:100C0400ECE713465A680AB1A242FAD9196858188F
:100C1400A0420BD120680144581882421960DDD1EA
:100C2400106852685A6001441960D7E702D90C234E
:100C34002B60D3E7206821188A4204BF11685268E8
:100C4400626004BF091821605C60C7E738BD00BF5B
:100C54009000002070B5CD1C25F0030508350C2D3F
:100C640038BF0C25002D064601DBA94203D90C230D
:100C74003360002070BD00F0F1F8214A1468214669
:100C840091B9204C23681BB9304600F03DF8206030
:100C94002946304600F038F8431C24D10C23336035
:100CA400304600F0DCF8E4E70B685B1B18D40B2B30
:100CB4000FD90B60CD50CC18304600F0D0F804F1B9
:100CC4000B00231D20F00700C31AD3D05A42E25070
:100CD400D0E78C424B6816BF636013600C46EBE7A9
:100CE4000C464968CCE7C41C24F00304A04205D098
:100CF400211A304600F008F80130CFD02560DBE738
:100D0400900000209400002038B5064C00230546CE
:100D140008462360FFF7A2FB431C02D1236803B1FA
:100D24002B6038BD9C00002010B50C46B1F90E10A4
:100D340000F096F80028ABBF636DA3891B1823F459
:100D44008053ACBF6365A38110BD2DE9F0411F46FC
:100D54008B89DB0505460C46164605D50223002281
:100D6400B1F90E1000F068F8A389B4F90E1023F459
:100D74008053A38132463B462846BDE8F04100F04B
:100D840017B810B50C46B1F90E1000F055F8431C15
:100D9400A38915BF606523F4805343F48053A38172
:100DA40018BFA38110BDB1F90E1000F013B80000F4
:100DB40038B5074C054608461146002222601A46FB
:100DC400FFF73EFB431C02D1236803B12B6038BDFF
:100DD4009C00002038B5064C0023054608462360D5
:100DE400FFF75AFB431C02D1236803B12B6038BDC3
:100DF4009C00002038B5074C0023054608461146E0
:100E04002360FFF74CFB431C02D1236803B12B6022
:100E140038BD00BF9C00002038B5064C00230546B1
:100E240008462360FFF740FB431C02D1236803B14B
:100E34002B6038BD9C00002038B5074C0546084699
:100E44001146002222601A46FFF730FB431C02D1F0
:100E5400236803B12B6038BD9C00002070477047A5
:100E640038B5074C054608461146002222601A464A
:100E7400FFF7D8FA431C02D1236803B12B6038BDB5
:100E84009C000020F8B500BFF8BC08BC9E46704723
:0C0E9400F8B500BFF8BC08BC9E467047D3
:100EA000310000003200000033000000410000006B
:100EB0003400000035000000360000004200000051
:100EC0003700000038000000390000004300000037
:100ED0002A00000030000000230000004400000051
:100EE0000C000020000000000000000000000000D6
:100EF00000000000000000000000000000000000F2
:100F000000000000000000000000000000000000E1
:100F100000000000000000000000000000000000D1
:100F200000000000000000000000000000000000C1
:100F300000000000000000000000000000000000B1
:040F400000000000AD
:040F4400E9010008B7
:040F4800C5010008D7
:100F4C0001000000100000000C0000200000000058
:100F5C00040F0008240F0008E40E00080000000035
:100F6C000000000000000000000000000000000075
:100F7C000000000000000000000000000000000065
:100F8C000000000000000000000000000000000055
:100F9C000000000000000000000000000000000045
:0C0FAC0000000000000000000000000039
:0400000508000501E9
:00000001FF
